{
  "_format": "hh-sol-artifact-1",
  "contractName": "Minter",
  "sourceName": "contracts/Minter.sol",
  "abi": [
    {
      "inputs": [],
      "stateMutability": "nonpayable",
      "type": "constructor"
    },
    {
      "anonymous": false,
      "inputs": [
        {
          "indexed": true,
          "internalType": "address",
          "name": "owner",
          "type": "address"
        },
        {
          "indexed": true,
          "internalType": "address",
          "name": "approved",
          "type": "address"
        },
        {
          "indexed": true,
          "internalType": "uint256",
          "name": "tokenId",
          "type": "uint256"
        }
      ],
      "name": "Approval",
      "type": "event"
    },
    {
      "anonymous": false,
      "inputs": [
        {
          "indexed": true,
          "internalType": "address",
          "name": "owner",
          "type": "address"
        },
        {
          "indexed": true,
          "internalType": "address",
          "name": "operator",
          "type": "address"
        },
        {
          "indexed": false,
          "internalType": "bool",
          "name": "approved",
          "type": "bool"
        }
      ],
      "name": "ApprovalForAll",
      "type": "event"
    },
    {
      "anonymous": false,
      "inputs": [
        {
          "indexed": true,
          "internalType": "address",
          "name": "previousOwner",
          "type": "address"
        },
        {
          "indexed": true,
          "internalType": "address",
          "name": "newOwner",
          "type": "address"
        }
      ],
      "name": "OwnershipTransferred",
      "type": "event"
    },
    {
      "anonymous": false,
      "inputs": [
        {
          "indexed": true,
          "internalType": "address",
          "name": "from",
          "type": "address"
        },
        {
          "indexed": true,
          "internalType": "address",
          "name": "to",
          "type": "address"
        },
        {
          "indexed": true,
          "internalType": "uint256",
          "name": "tokenId",
          "type": "uint256"
        }
      ],
      "name": "Transfer",
      "type": "event"
    },
    {
      "inputs": [
        {
          "internalType": "address",
          "name": "to",
          "type": "address"
        },
        {
          "internalType": "uint256",
          "name": "tokenId",
          "type": "uint256"
        }
      ],
      "name": "approve",
      "outputs": [],
      "stateMutability": "nonpayable",
      "type": "function"
    },
    {
      "inputs": [
        {
          "internalType": "address",
          "name": "owner",
          "type": "address"
        }
      ],
      "name": "balanceOf",
      "outputs": [
        {
          "internalType": "uint256",
          "name": "",
          "type": "uint256"
        }
      ],
      "stateMutability": "view",
      "type": "function"
    },
    {
      "inputs": [
        {
          "internalType": "uint256",
          "name": "tokenId",
          "type": "uint256"
        }
      ],
      "name": "getApproved",
      "outputs": [
        {
          "internalType": "address",
          "name": "",
          "type": "address"
        }
      ],
      "stateMutability": "view",
      "type": "function"
    },
    {
      "inputs": [
        {
          "internalType": "uint256",
          "name": "tokenId",
          "type": "uint256"
        },
        {
          "internalType": "address",
          "name": "_receiver",
          "type": "address"
        }
      ],
      "name": "giftToken",
      "outputs": [],
      "stateMutability": "nonpayable",
      "type": "function"
    },
    {
      "inputs": [
        {
          "internalType": "address",
          "name": "owner",
          "type": "address"
        },
        {
          "internalType": "address",
          "name": "operator",
          "type": "address"
        }
      ],
      "name": "isApprovedForAll",
      "outputs": [
        {
          "internalType": "bool",
          "name": "",
          "type": "bool"
        }
      ],
      "stateMutability": "view",
      "type": "function"
    },
    {
      "inputs": [
        {
          "internalType": "string",
          "name": "_tokenURI",
          "type": "string"
        }
      ],
      "name": "mint",
      "outputs": [
        {
          "internalType": "uint256",
          "name": "",
          "type": "uint256"
        }
      ],
      "stateMutability": "nonpayable",
      "type": "function"
    },
    {
      "inputs": [],
      "name": "name",
      "outputs": [
        {
          "internalType": "string",
          "name": "",
          "type": "string"
        }
      ],
      "stateMutability": "view",
      "type": "function"
    },
    {
      "inputs": [],
      "name": "owner",
      "outputs": [
        {
          "internalType": "address",
          "name": "",
          "type": "address"
        }
      ],
      "stateMutability": "view",
      "type": "function"
    },
    {
      "inputs": [
        {
          "internalType": "uint256",
          "name": "tokenId",
          "type": "uint256"
        }
      ],
      "name": "ownerOf",
      "outputs": [
        {
          "internalType": "address",
          "name": "",
          "type": "address"
        }
      ],
      "stateMutability": "view",
      "type": "function"
    },
    {
      "inputs": [],
      "name": "renounceOwnership",
      "outputs": [],
      "stateMutability": "nonpayable",
      "type": "function"
    },
    {
      "inputs": [
        {
          "internalType": "address",
          "name": "from",
          "type": "address"
        },
        {
          "internalType": "address",
          "name": "to",
          "type": "address"
        },
        {
          "internalType": "uint256",
          "name": "tokenId",
          "type": "uint256"
        }
      ],
      "name": "safeTransferFrom",
      "outputs": [],
      "stateMutability": "nonpayable",
      "type": "function"
    },
    {
      "inputs": [
        {
          "internalType": "address",
          "name": "from",
          "type": "address"
        },
        {
          "internalType": "address",
          "name": "to",
          "type": "address"
        },
        {
          "internalType": "uint256",
          "name": "tokenId",
          "type": "uint256"
        },
        {
          "internalType": "bytes",
          "name": "_data",
          "type": "bytes"
        }
      ],
      "name": "safeTransferFrom",
      "outputs": [],
      "stateMutability": "nonpayable",
      "type": "function"
    },
    {
      "inputs": [
        {
          "internalType": "address",
          "name": "operator",
          "type": "address"
        },
        {
          "internalType": "bool",
          "name": "approved",
          "type": "bool"
        }
      ],
      "name": "setApprovalForAll",
      "outputs": [],
      "stateMutability": "nonpayable",
      "type": "function"
    },
    {
      "inputs": [
        {
          "internalType": "bytes4",
          "name": "interfaceId",
          "type": "bytes4"
        }
      ],
      "name": "supportsInterface",
      "outputs": [
        {
          "internalType": "bool",
          "name": "",
          "type": "bool"
        }
      ],
      "stateMutability": "view",
      "type": "function"
    },
    {
      "inputs": [],
      "name": "symbol",
      "outputs": [
        {
          "internalType": "string",
          "name": "",
          "type": "string"
        }
      ],
      "stateMutability": "view",
      "type": "function"
    },
    {
      "inputs": [
        {
          "internalType": "uint256",
          "name": "index",
          "type": "uint256"
        }
      ],
      "name": "tokenByIndex",
      "outputs": [
        {
          "internalType": "uint256",
          "name": "",
          "type": "uint256"
        }
      ],
      "stateMutability": "view",
      "type": "function"
    },
    {
      "inputs": [
        {
          "internalType": "address",
          "name": "owner",
          "type": "address"
        },
        {
          "internalType": "uint256",
          "name": "index",
          "type": "uint256"
        }
      ],
      "name": "tokenOfOwnerByIndex",
      "outputs": [
        {
          "internalType": "uint256",
          "name": "",
          "type": "uint256"
        }
      ],
      "stateMutability": "view",
      "type": "function"
    },
    {
      "inputs": [
        {
          "internalType": "uint256",
          "name": "tokenId",
          "type": "uint256"
        }
      ],
      "name": "tokenURI",
      "outputs": [
        {
          "internalType": "string",
          "name": "",
          "type": "string"
        }
      ],
      "stateMutability": "view",
      "type": "function"
    },
    {
      "inputs": [],
      "name": "totalSupply",
      "outputs": [
        {
          "internalType": "uint256",
          "name": "",
          "type": "uint256"
        }
      ],
      "stateMutability": "view",
      "type": "function"
    },
    {
      "inputs": [
        {
          "internalType": "address",
          "name": "from",
          "type": "address"
        },
        {
          "internalType": "address",
          "name": "to",
          "type": "address"
        },
        {
          "internalType": "uint256",
          "name": "tokenId",
          "type": "uint256"
        }
      ],
      "name": "transferFrom",
      "outputs": [],
      "stateMutability": "nonpayable",
      "type": "function"
    },
    {
      "inputs": [
        {
          "internalType": "address",
          "name": "newOwner",
          "type": "address"
        }
      ],
      "name": "transferOwnership",
      "outputs": [],
      "stateMutability": "nonpayable",
      "type": "function"
    }
  ],
  "bytecode": "0x60806040523480156200001157600080fd5b506040518060400160405280600f81526020017f536b65746368657320546f6b656e7300000000000000000000000000000000008152506040518060400160405280600381526020017f534b540000000000000000000000000000000000000000000000000000000000815250816000908051906020019062000096929190620001a6565b508060019080519060200190620000af929190620001a6565b505050620000d2620000c6620000d860201b60201c565b620000e060201b60201c565b620002bb565b600033905090565b6000600b60009054906101000a900473ffffffffffffffffffffffffffffffffffffffff16905081600b60006101000a81548173ffffffffffffffffffffffffffffffffffffffff021916908373ffffffffffffffffffffffffffffffffffffffff1602179055508173ffffffffffffffffffffffffffffffffffffffff168173ffffffffffffffffffffffffffffffffffffffff167f8be0079c531659141344cd1fd0a4f28419497f9722a3daafe3b4186f6b6457e060405160405180910390a35050565b828054620001b49062000256565b90600052602060002090601f016020900481019282620001d8576000855562000224565b82601f10620001f357805160ff191683800117855562000224565b8280016001018555821562000224579182015b828111156200022357825182559160200191906001019062000206565b5b50905062000233919062000237565b5090565b5b808211156200025257600081600090555060010162000238565b5090565b600060028204905060018216806200026f57607f821691505b602082108114156200028657620002856200028c565b5b50919050565b7f4e487b7100000000000000000000000000000000000000000000000000000000600052602260045260246000fd5b613acd80620002cb6000396000f3fe608060405234801561001057600080fd5b50600436106101375760003560e01c80636352211e116100b8578063a22cb4651161007c578063a22cb4651461034e578063b88d4fde1461036a578063c87b56dd14610386578063d85d3d27146103b6578063e985e9c5146103e6578063f2fde38b1461041657610137565b80636352211e146102a857806370a08231146102d8578063715018a6146103085780638da5cb5b1461031257806395d89b411461033057610137565b806323b872dd116100ff57806323b872dd146101f45780632f745c591461021057806342842e0e146102405780634f6ccce71461025c57806358beb7c11461028c57610137565b806301ffc9a71461013c57806306fdde031461016c578063081812fc1461018a578063095ea7b3146101ba57806318160ddd146101d6575b600080fd5b61015660048036038101906101519190612797565b610432565b6040516101639190612d0f565b60405180910390f35b610174610444565b6040516101819190612d2a565b60405180910390f35b6101a4600480360381019061019f919061282a565b6104d6565b6040516101b19190612ca8565b60405180910390f35b6101d460048036038101906101cf919061275b565b61055b565b005b6101de610673565b6040516101eb919061302c565b60405180910390f35b61020e60048036038101906102099190612655565b610680565b005b61022a6004803603810190610225919061275b565b6106e0565b604051610237919061302c565b60405180910390f35b61025a60048036038101906102559190612655565b610785565b005b6102766004803603810190610271919061282a565b6107a5565b604051610283919061302c565b60405180910390f35b6102a660048036038101906102a19190612853565b61083c565b005b6102c260048036038101906102bd919061282a565b610906565b6040516102cf9190612ca8565b60405180910390f35b6102f260048036038101906102ed91906125f0565b6109b8565b6040516102ff919061302c565b60405180910390f35b610310610a70565b005b61031a610af8565b6040516103279190612ca8565b60405180910390f35b610338610b22565b6040516103459190612d2a565b60405180910390f35b6103686004803603810190610363919061271f565b610bb4565b005b610384600480360381019061037f91906126a4565b610bca565b005b6103a0600480360381019061039b919061282a565b610c2c565b6040516103ad9190612d2a565b60405180910390f35b6103d060048036038101906103cb91906127e9565b610c3e565b6040516103dd919061302c565b60405180910390f35b61040060048036038101906103fb9190612619565b610cb9565b60405161040d9190612d0f565b60405180910390f35b610430600480360381019061042b91906125f0565b610d4d565b005b600061043d82610e45565b9050919050565b60606000805461045390613282565b80601f016020809104026020016040519081016040528092919081815260200182805461047f90613282565b80156104cc5780601f106104a1576101008083540402835291602001916104cc565b820191906000526020600020905b8154815290600101906020018083116104af57829003601f168201915b5050505050905090565b60006104e182610ebf565b610520576040517f08c379a000000000000000000000000000000000000000000000000000000000815260040161051790612f6c565b60405180910390fd5b6004600083815260200190815260200160002060009054906101000a900473ffffffffffffffffffffffffffffffffffffffff169050919050565b600061056682610906565b90508073ffffffffffffffffffffffffffffffffffffffff168373ffffffffffffffffffffffffffffffffffffffff1614156105d7576040517f08c379a00000000000000000000000000000000000000000000000000000000081526004016105ce90612fcc565b60405180910390fd5b8073ffffffffffffffffffffffffffffffffffffffff166105f6610f2b565b73ffffffffffffffffffffffffffffffffffffffff16148061062557506106248161061f610f2b565b610cb9565b5b610664576040517f08c379a000000000000000000000000000000000000000000000000000000000815260040161065b90612e8c565b60405180910390fd5b61066e8383610f33565b505050565b6000600880549050905090565b61069161068b610f2b565b82610fec565b6106d0576040517f08c379a00000000000000000000000000000000000000000000000000000000081526004016106c790612fec565b60405180910390fd5b6106db8383836110ca565b505050565b60006106eb836109b8565b821061072c576040517f08c379a000000000000000000000000000000000000000000000000000000000815260040161072390612d8c565b60405180910390fd5b600660008473ffffffffffffffffffffffffffffffffffffffff1673ffffffffffffffffffffffffffffffffffffffff168152602001908152602001600020600083815260200190815260200160002054905092915050565b6107a083838360405180602001604052806000815250610bca565b505050565b60006107af610673565b82106107f0576040517f08c379a00000000000000000000000000000000000000000000000000000000081526004016107e79061300c565b60405180910390fd5b6008828154811061082a577f4e487b7100000000000000000000000000000000000000000000000000000000600052603260045260246000fd5b90600052602060002001549050919050565b610846600c611331565b8210610887576040517f08c379a000000000000000000000000000000000000000000000000000000000815260040161087e90612d4c565b60405180910390fd5b600073ffffffffffffffffffffffffffffffffffffffff168173ffffffffffffffffffffffffffffffffffffffff1614156108f7576040517f08c379a00000000000000000000000000000000000000000000000000000000081526004016108ee90612f2c565b60405180910390fd5b6109023382846110ca565b5050565b6000806002600084815260200190815260200160002060009054906101000a900473ffffffffffffffffffffffffffffffffffffffff169050600073ffffffffffffffffffffffffffffffffffffffff168173ffffffffffffffffffffffffffffffffffffffff1614156109af576040517f08c379a00000000000000000000000000000000000000000000000000000000081526004016109a690612ecc565b60405180910390fd5b80915050919050565b60008073ffffffffffffffffffffffffffffffffffffffff168273ffffffffffffffffffffffffffffffffffffffff161415610a29576040517f08c379a0000000000000000000000000000000000000000000000000000000008152600401610a2090612eac565b60405180910390fd5b600360008373ffffffffffffffffffffffffffffffffffffffff1673ffffffffffffffffffffffffffffffffffffffff168152602001908152602001600020549050919050565b610a78610f2b565b73ffffffffffffffffffffffffffffffffffffffff16610a96610af8565b73ffffffffffffffffffffffffffffffffffffffff1614610aec576040517f08c379a0000000000000000000000000000000000000000000000000000000008152600401610ae390612f8c565b60405180910390fd5b610af6600061133f565b565b6000600b60009054906101000a900473ffffffffffffffffffffffffffffffffffffffff16905090565b606060018054610b3190613282565b80601f0160208091040260200160405190810160405280929190818152602001828054610b5d90613282565b8015610baa5780601f10610b7f57610100808354040283529160200191610baa565b820191906000526020600020905b815481529060010190602001808311610b8d57829003601f168201915b5050505050905090565b610bc6610bbf610f2b565b8383611405565b5050565b610bdb610bd5610f2b565b83610fec565b610c1a576040517f08c379a0000000000000000000000000000000000000000000000000000000008152600401610c1190612fec565b60405180910390fd5b610c2684848484611572565b50505050565b6060610c37826115ce565b9050919050565b60006007825111610c84576040517f08c379a0000000000000000000000000000000000000000000000000000000008152600401610c7b90612d6c565b60405180910390fd5b6000610c90600c611331565b9050610c9c600c611720565b610ca63382611736565b610cb08184611754565b80915050919050565b6000600560008473ffffffffffffffffffffffffffffffffffffffff1673ffffffffffffffffffffffffffffffffffffffff16815260200190815260200160002060008373ffffffffffffffffffffffffffffffffffffffff1673ffffffffffffffffffffffffffffffffffffffff16815260200190815260200160002060009054906101000a900460ff16905092915050565b610d55610f2b565b73ffffffffffffffffffffffffffffffffffffffff16610d73610af8565b73ffffffffffffffffffffffffffffffffffffffff1614610dc9576040517f08c379a0000000000000000000000000000000000000000000000000000000008152600401610dc090612f8c565b60405180910390fd5b600073ffffffffffffffffffffffffffffffffffffffff168173ffffffffffffffffffffffffffffffffffffffff161415610e39576040517f08c379a0000000000000000000000000000000000000000000000000000000008152600401610e3090612dcc565b60405180910390fd5b610e428161133f565b50565b60007f780e9d63000000000000000000000000000000000000000000000000000000007bffffffffffffffffffffffffffffffffffffffffffffffffffffffff1916827bffffffffffffffffffffffffffffffffffffffffffffffffffffffff19161480610eb85750610eb7826117c8565b5b9050919050565b60008073ffffffffffffffffffffffffffffffffffffffff166002600084815260200190815260200160002060009054906101000a900473ffffffffffffffffffffffffffffffffffffffff1673ffffffffffffffffffffffffffffffffffffffff1614159050919050565b600033905090565b816004600083815260200190815260200160002060006101000a81548173ffffffffffffffffffffffffffffffffffffffff021916908373ffffffffffffffffffffffffffffffffffffffff160217905550808273ffffffffffffffffffffffffffffffffffffffff16610fa683610906565b73ffffffffffffffffffffffffffffffffffffffff167f8c5be1e5ebec7d5bd14f71427d1e84f3dd0314c0f7b2291e5b200ac8c7c3b92560405160405180910390a45050565b6000610ff782610ebf565b611036576040517f08c379a000000000000000000000000000000000000000000000000000000000815260040161102d90612e6c565b60405180910390fd5b600061104183610906565b90508073ffffffffffffffffffffffffffffffffffffffff168473ffffffffffffffffffffffffffffffffffffffff16148061108357506110828185610cb9565b5b806110c157508373ffffffffffffffffffffffffffffffffffffffff166110a9846104d6565b73ffffffffffffffffffffffffffffffffffffffff16145b91505092915050565b8273ffffffffffffffffffffffffffffffffffffffff166110ea82610906565b73ffffffffffffffffffffffffffffffffffffffff1614611140576040517f08c379a000000000000000000000000000000000000000000000000000000000815260040161113790612dec565b60405180910390fd5b600073ffffffffffffffffffffffffffffffffffffffff168273ffffffffffffffffffffffffffffffffffffffff1614156111b0576040517f08c379a00000000000000000000000000000000000000000000000000000000081526004016111a790612e2c565b60405180910390fd5b6111bb8383836118aa565b6111c6600082610f33565b6001600360008573ffffffffffffffffffffffffffffffffffffffff1673ffffffffffffffffffffffffffffffffffffffff16815260200190815260200160002060008282546112169190613198565b925050819055506001600360008473ffffffffffffffffffffffffffffffffffffffff1673ffffffffffffffffffffffffffffffffffffffff168152602001908152602001600020600082825461126d9190613111565b92505081905550816002600083815260200190815260200160002060006101000a81548173ffffffffffffffffffffffffffffffffffffffff021916908373ffffffffffffffffffffffffffffffffffffffff160217905550808273ffffffffffffffffffffffffffffffffffffffff168473ffffffffffffffffffffffffffffffffffffffff167fddf252ad1be2c89b69c2b068fc378daa952ba7f163c4a11628f55a4df523b3ef60405160405180910390a461132c8383836118ba565b505050565b600081600001549050919050565b6000600b60009054906101000a900473ffffffffffffffffffffffffffffffffffffffff16905081600b60006101000a81548173ffffffffffffffffffffffffffffffffffffffff021916908373ffffffffffffffffffffffffffffffffffffffff1602179055508173ffffffffffffffffffffffffffffffffffffffff168173ffffffffffffffffffffffffffffffffffffffff167f8be0079c531659141344cd1fd0a4f28419497f9722a3daafe3b4186f6b6457e060405160405180910390a35050565b8173ffffffffffffffffffffffffffffffffffffffff168373ffffffffffffffffffffffffffffffffffffffff161415611474576040517f08c379a000000000000000000000000000000000000000000000000000000000815260040161146b90612e4c565b60405180910390fd5b80600560008573ffffffffffffffffffffffffffffffffffffffff1673ffffffffffffffffffffffffffffffffffffffff16815260200190815260200160002060008473ffffffffffffffffffffffffffffffffffffffff1673ffffffffffffffffffffffffffffffffffffffff16815260200190815260200160002060006101000a81548160ff0219169083151502179055508173ffffffffffffffffffffffffffffffffffffffff168373ffffffffffffffffffffffffffffffffffffffff167f17307eab39ab6107e8899845ad3d59bd9653f200f220920489ca2b5937696c31836040516115659190612d0f565b60405180910390a3505050565b61157d8484846110ca565b611589848484846118bf565b6115c8576040517f08c379a00000000000000000000000000000000000000000000000000000000081526004016115bf90612dac565b60405180910390fd5b50505050565b60606115d982610ebf565b611618576040517f08c379a000000000000000000000000000000000000000000000000000000000815260040161160f90612f4c565b60405180910390fd5b6000600a6000848152602001908152602001600020805461163890613282565b80601f016020809104026020016040519081016040528092919081815260200182805461166490613282565b80156116b15780601f10611686576101008083540402835291602001916116b1565b820191906000526020600020905b81548152906001019060200180831161169457829003601f168201915b5050505050905060006116c2611a56565b90506000815114156116d857819250505061171b565b60008251111561170d5780826040516020016116f5929190612c84565b6040516020818303038152906040529250505061171b565b61171684611a6d565b925050505b919050565b6001816000016000828254019250508190555050565b611750828260405180602001604052806000815250611b14565b5050565b61175d82610ebf565b61179c576040517f08c379a000000000000000000000000000000000000000000000000000000000815260040161179390612eec565b60405180910390fd5b80600a600084815260200190815260200160002090805190602001906117c3929190612414565b505050565b60007f80ac58cd000000000000000000000000000000000000000000000000000000007bffffffffffffffffffffffffffffffffffffffffffffffffffffffff1916827bffffffffffffffffffffffffffffffffffffffffffffffffffffffff1916148061189357507f5b5e139f000000000000000000000000000000000000000000000000000000007bffffffffffffffffffffffffffffffffffffffffffffffffffffffff1916827bffffffffffffffffffffffffffffffffffffffffffffffffffffffff1916145b806118a357506118a282611b6f565b5b9050919050565b6118b5838383611bd9565b505050565b505050565b60006118e08473ffffffffffffffffffffffffffffffffffffffff16611ced565b15611a49578373ffffffffffffffffffffffffffffffffffffffff1663150b7a02611909610f2b565b8786866040518563ffffffff1660e01b815260040161192b9493929190612cc3565b602060405180830381600087803b15801561194557600080fd5b505af192505050801561197657506040513d601f19601f8201168201806040525081019061197391906127c0565b60015b6119f9573d80600081146119a6576040519150601f19603f3d011682016040523d82523d6000602084013e6119ab565b606091505b506000815114156119f1576040517f08c379a00000000000000000000000000000000000000000000000000000000081526004016119e890612dac565b60405180910390fd5b805181602001fd5b63150b7a0260e01b7bffffffffffffffffffffffffffffffffffffffffffffffffffffffff1916817bffffffffffffffffffffffffffffffffffffffffffffffffffffffff191614915050611a4e565b600190505b949350505050565b606060405180602001604052806000815250905090565b6060611a7882610ebf565b611ab7576040517f08c379a0000000000000000000000000000000000000000000000000000000008152600401611aae90612fac565b60405180910390fd5b6000611ac1611a56565b90506000815111611ae15760405180602001604052806000815250611b0c565b80611aeb84611d10565b604051602001611afc929190612c84565b6040516020818303038152906040525b915050919050565b611b1e8383611ebd565b611b2b60008484846118bf565b611b6a576040517f08c379a0000000000000000000000000000000000000000000000000000000008152600401611b6190612dac565b60405180910390fd5b505050565b60007f01ffc9a7000000000000000000000000000000000000000000000000000000007bffffffffffffffffffffffffffffffffffffffffffffffffffffffff1916827bffffffffffffffffffffffffffffffffffffffffffffffffffffffff1916149050919050565b611be4838383612097565b600073ffffffffffffffffffffffffffffffffffffffff168373ffffffffffffffffffffffffffffffffffffffff161415611c2757611c228161209c565b611c66565b8173ffffffffffffffffffffffffffffffffffffffff168373ffffffffffffffffffffffffffffffffffffffff1614611c6557611c6483826120e5565b5b5b600073ffffffffffffffffffffffffffffffffffffffff168273ffffffffffffffffffffffffffffffffffffffff161415611ca957611ca481612252565b611ce8565b8273ffffffffffffffffffffffffffffffffffffffff168273ffffffffffffffffffffffffffffffffffffffff1614611ce757611ce68282612395565b5b5b505050565b6000808273ffffffffffffffffffffffffffffffffffffffff163b119050919050565b60606000821415611d58576040518060400160405280600181526020017f30000000000000000000000000000000000000000000000000000000000000008152509050611eb8565b600082905060005b60008214611d8a578080611d73906132e5565b915050600a82611d839190613167565b9150611d60565b60008167ffffffffffffffff811115611dcc577f4e487b7100000000000000000000000000000000000000000000000000000000600052604160045260246000fd5b6040519080825280601f01601f191660200182016040528015611dfe5781602001600182028036833780820191505090505b5090505b60008514611eb157600182611e179190613198565b9150600a85611e26919061332e565b6030611e329190613111565b60f81b818381518110611e6e577f4e487b7100000000000000000000000000000000000000000000000000000000600052603260045260246000fd5b60200101907effffffffffffffffffffffffffffffffffffffffffffffffffffffffffffff1916908160001a905350600a85611eaa9190613167565b9450611e02565b8093505050505b919050565b600073ffffffffffffffffffffffffffffffffffffffff168273ffffffffffffffffffffffffffffffffffffffff161415611f2d576040517f08c379a0000000000000000000000000000000000000000000000000000000008152600401611f2490612f0c565b60405180910390fd5b611f3681610ebf565b15611f76576040517f08c379a0000000000000000000000000000000000000000000000000000000008152600401611f6d90612e0c565b60405180910390fd5b611f82600083836118aa565b6001600360008473ffffffffffffffffffffffffffffffffffffffff1673ffffffffffffffffffffffffffffffffffffffff1681526020019081526020016000206000828254611fd29190613111565b92505081905550816002600083815260200190815260200160002060006101000a81548173ffffffffffffffffffffffffffffffffffffffff021916908373ffffffffffffffffffffffffffffffffffffffff160217905550808273ffffffffffffffffffffffffffffffffffffffff16600073ffffffffffffffffffffffffffffffffffffffff167fddf252ad1be2c89b69c2b068fc378daa952ba7f163c4a11628f55a4df523b3ef60405160405180910390a4612093600083836118ba565b5050565b505050565b6008805490506009600083815260200190815260200160002081905550600881908060018154018082558091505060019003906000526020600020016000909190919091505550565b600060016120f2846109b8565b6120fc9190613198565b90506000600760008481526020019081526020016000205490508181146121e1576000600660008673ffffffffffffffffffffffffffffffffffffffff1673ffffffffffffffffffffffffffffffffffffffff168152602001908152602001600020600084815260200190815260200160002054905080600660008773ffffffffffffffffffffffffffffffffffffffff1673ffffffffffffffffffffffffffffffffffffffff168152602001908152602001600020600084815260200190815260200160002081905550816007600083815260200190815260200160002081905550505b6007600084815260200190815260200160002060009055600660008573ffffffffffffffffffffffffffffffffffffffff1673ffffffffffffffffffffffffffffffffffffffff16815260200190815260200160002060008381526020019081526020016000206000905550505050565b600060016008805490506122669190613198565b90506000600960008481526020019081526020016000205490506000600883815481106122bc577f4e487b7100000000000000000000000000000000000000000000000000000000600052603260045260246000fd5b906000526020600020015490508060088381548110612304577f4e487b7100000000000000000000000000000000000000000000000000000000600052603260045260246000fd5b906000526020600020018190555081600960008381526020019081526020016000208190555060096000858152602001908152602001600020600090556008805480612379577f4e487b7100000000000000000000000000000000000000000000000000000000600052603160045260246000fd5b6001900381819060005260206000200160009055905550505050565b60006123a0836109b8565b905081600660008573ffffffffffffffffffffffffffffffffffffffff1673ffffffffffffffffffffffffffffffffffffffff168152602001908152602001600020600083815260200190815260200160002081905550806007600084815260200190815260200160002081905550505050565b82805461242090613282565b90600052602060002090601f0160209004810192826124425760008555612489565b82601f1061245b57805160ff1916838001178555612489565b82800160010185558215612489579182015b8281111561248857825182559160200191906001019061246d565b5b509050612496919061249a565b5090565b5b808211156124b357600081600090555060010161249b565b5090565b60006124ca6124c58461306c565b613047565b9050828152602081018484840111156124e257600080fd5b6124ed848285613240565b509392505050565b60006125086125038461309d565b613047565b90508281526020810184848401111561252057600080fd5b61252b848285613240565b509392505050565b60008135905061254281613a3b565b92915050565b60008135905061255781613a52565b92915050565b60008135905061256c81613a69565b92915050565b60008151905061258181613a69565b92915050565b600082601f83011261259857600080fd5b81356125a88482602086016124b7565b91505092915050565b600082601f8301126125c257600080fd5b81356125d28482602086016124f5565b91505092915050565b6000813590506125ea81613a80565b92915050565b60006020828403121561260257600080fd5b600061261084828501612533565b91505092915050565b6000806040838503121561262c57600080fd5b600061263a85828601612533565b925050602061264b85828601612533565b9150509250929050565b60008060006060848603121561266a57600080fd5b600061267886828701612533565b935050602061268986828701612533565b925050604061269a868287016125db565b9150509250925092565b600080600080608085870312156126ba57600080fd5b60006126c887828801612533565b94505060206126d987828801612533565b93505060406126ea878288016125db565b925050606085013567ffffffffffffffff81111561270757600080fd5b61271387828801612587565b91505092959194509250565b6000806040838503121561273257600080fd5b600061274085828601612533565b925050602061275185828601612548565b9150509250929050565b6000806040838503121561276e57600080fd5b600061277c85828601612533565b925050602061278d858286016125db565b9150509250929050565b6000602082840312156127a957600080fd5b60006127b78482850161255d565b91505092915050565b6000602082840312156127d257600080fd5b60006127e084828501612572565b91505092915050565b6000602082840312156127fb57600080fd5b600082013567ffffffffffffffff81111561281557600080fd5b612821848285016125b1565b91505092915050565b60006020828403121561283c57600080fd5b600061284a848285016125db565b91505092915050565b6000806040838503121561286657600080fd5b6000612874858286016125db565b925050602061288585828601612533565b9150509250929050565b612898816131cc565b82525050565b6128a7816131de565b82525050565b60006128b8826130ce565b6128c281856130e4565b93506128d281856020860161324f565b6128db8161341b565b840191505092915050565b60006128f1826130d9565b6128fb81856130f5565b935061290b81856020860161324f565b6129148161341b565b840191505092915050565b600061292a826130d9565b6129348185613106565b935061294481856020860161324f565b80840191505092915050565b600061295d6017836130f5565b91506129688261342c565b602082019050919050565b60006129806017836130f5565b915061298b82613455565b602082019050919050565b60006129a3602b836130f5565b91506129ae8261347e565b604082019050919050565b60006129c66032836130f5565b91506129d1826134cd565b604082019050919050565b60006129e96026836130f5565b91506129f48261351c565b604082019050919050565b6000612a0c6025836130f5565b9150612a178261356b565b604082019050919050565b6000612a2f601c836130f5565b9150612a3a826135ba565b602082019050919050565b6000612a526024836130f5565b9150612a5d826135e3565b604082019050919050565b6000612a756019836130f5565b9150612a8082613632565b602082019050919050565b6000612a98602c836130f5565b9150612aa38261365b565b604082019050919050565b6000612abb6038836130f5565b9150612ac6826136aa565b604082019050919050565b6000612ade602a836130f5565b9150612ae9826136f9565b604082019050919050565b6000612b016029836130f5565b9150612b0c82613748565b604082019050919050565b6000612b24602e836130f5565b9150612b2f82613797565b604082019050919050565b6000612b476020836130f5565b9150612b52826137e6565b602082019050919050565b6000612b6a6017836130f5565b9150612b758261380f565b602082019050919050565b6000612b8d6031836130f5565b9150612b9882613838565b604082019050919050565b6000612bb0602c836130f5565b9150612bbb82613887565b604082019050919050565b6000612bd36020836130f5565b9150612bde826138d6565b602082019050919050565b6000612bf6602f836130f5565b9150612c01826138ff565b604082019050919050565b6000612c196021836130f5565b9150612c248261394e565b604082019050919050565b6000612c3c6031836130f5565b9150612c478261399d565b604082019050919050565b6000612c5f602c836130f5565b9150612c6a826139ec565b604082019050919050565b612c7e81613236565b82525050565b6000612c90828561291f565b9150612c9c828461291f565b91508190509392505050565b6000602082019050612cbd600083018461288f565b92915050565b6000608082019050612cd8600083018761288f565b612ce5602083018661288f565b612cf26040830185612c75565b8181036060830152612d0481846128ad565b905095945050505050565b6000602082019050612d24600083018461289e565b92915050565b60006020820190508181036000830152612d4481846128e6565b905092915050565b60006020820190508181036000830152612d6581612950565b9050919050565b60006020820190508181036000830152612d8581612973565b9050919050565b60006020820190508181036000830152612da581612996565b9050919050565b60006020820190508181036000830152612dc5816129b9565b9050919050565b60006020820190508181036000830152612de5816129dc565b9050919050565b60006020820190508181036000830152612e05816129ff565b9050919050565b60006020820190508181036000830152612e2581612a22565b9050919050565b60006020820190508181036000830152612e4581612a45565b9050919050565b60006020820190508181036000830152612e6581612a68565b9050919050565b60006020820190508181036000830152612e8581612a8b565b9050919050565b60006020820190508181036000830152612ea581612aae565b9050919050565b60006020820190508181036000830152612ec581612ad1565b9050919050565b60006020820190508181036000830152612ee581612af4565b9050919050565b60006020820190508181036000830152612f0581612b17565b9050919050565b60006020820190508181036000830152612f2581612b3a565b9050919050565b60006020820190508181036000830152612f4581612b5d565b9050919050565b60006020820190508181036000830152612f6581612b80565b9050919050565b60006020820190508181036000830152612f8581612ba3565b9050919050565b60006020820190508181036000830152612fa581612bc6565b9050919050565b60006020820190508181036000830152612fc581612be9565b9050919050565b60006020820190508181036000830152612fe581612c0c565b9050919050565b6000602082019050818103600083015261300581612c2f565b9050919050565b6000602082019050818103600083015261302581612c52565b9050919050565b60006020820190506130416000830184612c75565b92915050565b6000613051613062565b905061305d82826132b4565b919050565b6000604051905090565b600067ffffffffffffffff821115613087576130866133ec565b5b6130908261341b565b9050602081019050919050565b600067ffffffffffffffff8211156130b8576130b76133ec565b5b6130c18261341b565b9050602081019050919050565b600081519050919050565b600081519050919050565b600082825260208201905092915050565b600082825260208201905092915050565b600081905092915050565b600061311c82613236565b915061312783613236565b9250827fffffffffffffffffffffffffffffffffffffffffffffffffffffffffffffffff0382111561315c5761315b61335f565b5b828201905092915050565b600061317282613236565b915061317d83613236565b92508261318d5761318c61338e565b5b828204905092915050565b60006131a382613236565b91506131ae83613236565b9250828210156131c1576131c061335f565b5b828203905092915050565b60006131d782613216565b9050919050565b60008115159050919050565b60007fffffffff0000000000000000000000000000000000000000000000000000000082169050919050565b600073ffffffffffffffffffffffffffffffffffffffff82169050919050565b6000819050919050565b82818337600083830152505050565b60005b8381101561326d578082015181840152602081019050613252565b8381111561327c576000848401525b50505050565b6000600282049050600182168061329a57607f821691505b602082108114156132ae576132ad6133bd565b5b50919050565b6132bd8261341b565b810181811067ffffffffffffffff821117156132dc576132db6133ec565b5b80604052505050565b60006132f082613236565b91507fffffffffffffffffffffffffffffffffffffffffffffffffffffffffffffffff8214156133235761332261335f565b5b600182019050919050565b600061333982613236565b915061334483613236565b9250826133545761335361338e565b5b828206905092915050565b7f4e487b7100000000000000000000000000000000000000000000000000000000600052601160045260246000fd5b7f4e487b7100000000000000000000000000000000000000000000000000000000600052601260045260246000fd5b7f4e487b7100000000000000000000000000000000000000000000000000000000600052602260045260246000fd5b7f4e487b7100000000000000000000000000000000000000000000000000000000600052604160045260246000fd5b6000601f19601f8301169050919050565b7f496e76616c696420746f6b656e496420656e7465726564000000000000000000600082015250565b7f456e74657220612076616c696420746f6b656e20757269000000000000000000600082015250565b7f455243373231456e756d657261626c653a206f776e657220696e646578206f7560008201527f74206f6620626f756e6473000000000000000000000000000000000000000000602082015250565b7f4552433732313a207472616e7366657220746f206e6f6e20455243373231526560008201527f63656976657220696d706c656d656e7465720000000000000000000000000000602082015250565b7f4f776e61626c653a206e6577206f776e657220697320746865207a65726f206160008201527f6464726573730000000000000000000000000000000000000000000000000000602082015250565b7f4552433732313a207472616e736665722066726f6d20696e636f72726563742060008201527f6f776e6572000000000000000000000000000000000000000000000000000000602082015250565b7f4552433732313a20746f6b656e20616c7265616479206d696e74656400000000600082015250565b7f4552433732313a207472616e7366657220746f20746865207a65726f2061646460008201527f7265737300000000000000000000000000000000000000000000000000000000602082015250565b7f4552433732313a20617070726f766520746f2063616c6c657200000000000000600082015250565b7f4552433732313a206f70657261746f7220717565727920666f72206e6f6e657860008201527f697374656e7420746f6b656e0000000000000000000000000000000000000000602082015250565b7f4552433732313a20617070726f76652063616c6c6572206973206e6f74206f7760008201527f6e6572206e6f7220617070726f76656420666f7220616c6c0000000000000000602082015250565b7f4552433732313a2062616c616e636520717565727920666f7220746865207a6560008201527f726f206164647265737300000000000000000000000000000000000000000000602082015250565b7f4552433732313a206f776e657220717565727920666f72206e6f6e657869737460008201527f656e7420746f6b656e0000000000000000000000000000000000000000000000602082015250565b7f45524337323155524953746f726167653a2055524920736574206f66206e6f6e60008201527f6578697374656e7420746f6b656e000000000000000000000000000000000000602082015250565b7f4552433732313a206d696e7420746f20746865207a65726f2061646472657373600082015250565b7f496e76616c6964206164647265737320656e7465726564000000000000000000600082015250565b7f45524337323155524953746f726167653a2055524920717565727920666f722060008201527f6e6f6e6578697374656e7420746f6b656e000000000000000000000000000000602082015250565b7f4552433732313a20617070726f76656420717565727920666f72206e6f6e657860008201527f697374656e7420746f6b656e0000000000000000000000000000000000000000602082015250565b7f4f776e61626c653a2063616c6c6572206973206e6f7420746865206f776e6572600082015250565b7f4552433732314d657461646174613a2055524920717565727920666f72206e6f60008201527f6e6578697374656e7420746f6b656e0000000000000000000000000000000000602082015250565b7f4552433732313a20617070726f76616c20746f2063757272656e74206f776e6560008201527f7200000000000000000000000000000000000000000000000000000000000000602082015250565b7f4552433732313a207472616e736665722063616c6c6572206973206e6f74206f60008201527f776e6572206e6f7220617070726f766564000000000000000000000000000000602082015250565b7f455243373231456e756d657261626c653a20676c6f62616c20696e646578206f60008201527f7574206f6620626f756e64730000000000000000000000000000000000000000602082015250565b613a44816131cc565b8114613a4f57600080fd5b50565b613a5b816131de565b8114613a6657600080fd5b50565b613a72816131ea565b8114613a7d57600080fd5b50565b613a8981613236565b8114613a9457600080fd5b5056fea264697066735822122046c141468d6f543769e84919e41535fa6f581ec377bb323386cc287ceb786f4e64736f6c63430008040033",
  "linkReferences": {},
  "deployedLinkReferences": {}
}